{
    "_format": "hh-sol-artifact-1",
    "contractName": "MagicMintEngine",
    "sourceName": "contracts/MagicMintEngine.sol",
    "abi": [
        {
            "inputs": [
                {
                    "internalType": "uint256",
                    "name": "",
                    "type": "uint256"
                }
            ],
            "name": "afterEngineSet",
            "outputs": [],
            "stateMutability": "view",
            "type": "function"
        },
        {
            "inputs": [
                {
                    "internalType": "address",
                    "name": "",
                    "type": "address"
                },
                {
                    "internalType": "address",
                    "name": "",
                    "type": "address"
                },
                {
                    "internalType": "address",
                    "name": "",
                    "type": "address"
                },
                {
                    "internalType": "uint256",
                    "name": "",
                    "type": "uint256"
                },
                {
                    "internalType": "uint256",
                    "name": "",
                    "type": "uint256"
                }
            ],
            "name": "beforeTokenTransfer",
            "outputs": [],
            "stateMutability": "pure",
            "type": "function"
        },
        {
            "inputs": [
                {
                    "internalType": "contract IShellFramework",
                    "name": "",
                    "type": "address"
                },
                {
                    "internalType": "uint256",
                    "name": "",
                    "type": "uint256"
                },
                {
                    "internalType": "uint256",
                    "name": "",
                    "type": "uint256"
                }
            ],
            "name": "getRoyaltyInfo",
            "outputs": [
                {
                    "internalType": "address",
                    "name": "receiver",
                    "type": "address"
                },
                {
                    "internalType": "uint256",
                    "name": "royaltyAmount",
                    "type": "uint256"
                }
            ],
            "stateMutability": "view",
            "type": "function"
        },
        {
            "inputs": [
                {
                    "internalType": "contract IShellFramework",
                    "name": "collection",
                    "type": "address"
                },
                {
                    "internalType": "uint256",
                    "name": "tokenId",
                    "type": "uint256"
                }
            ],
            "name": "getTokenURI",
            "outputs": [
                {
                    "internalType": "string",
                    "name": "",
                    "type": "string"
                }
            ],
            "stateMutability": "view",
            "type": "function"
        },
        {
            "inputs": [
                {
                    "internalType": "contract IShellFramework",
                    "name": "collection",
                    "type": "address"
                },
                {
                    "internalType": "address",
                    "name": "to",
                    "type": "address"
                },
                {
                    "internalType": "string",
                    "name": "ipfsHash",
                    "type": "string"
                }
            ],
            "name": "mint",
            "outputs": [
                {
                    "internalType": "uint256",
                    "name": "",
                    "type": "uint256"
                }
            ],
            "stateMutability": "nonpayable",
            "type": "function"
        },
        {
            "inputs": [],
            "name": "name",
            "outputs": [
                {
                    "internalType": "string",
                    "name": "",
                    "type": "string"
                }
            ],
            "stateMutability": "pure",
            "type": "function"
        },
        {
            "inputs": [
                {
                    "internalType": "bytes4",
                    "name": "interfaceId",
                    "type": "bytes4"
                }
            ],
            "name": "supportsInterface",
            "outputs": [
                {
                    "internalType": "bool",
                    "name": "",
                    "type": "bool"
                }
            ],
            "stateMutability": "pure",
            "type": "function"
        }
    ],
    "bytecode": "0x608060405234801561001057600080fd5b5061095d806100206000396000f3fe608060405234801561001057600080fd5b506004361061007d5760003560e01c8063221375a61161005b578063221375a6146100ef57806336de974214610110578063d70dee3214610148578063e7504d0d1461015f57600080fd5b806301ffc9a71461008257806306fdde03146100aa5780630b63fd62146100dc575b600080fd5b610095610090366004610422565b610170565b60405190151581526020015b60405180910390f35b60408051808201909152600d81526c6d616769632d6d696e742d763160981b60208201525b6040516100a191906104af565b6100cf6100ea3660046104d7565b6101a7565b6101026100fd366004610503565b61024a565b6040519081526020016100a1565b61012961011e366004610595565b506000928392509050565b604080516001600160a01b0390931683526020830191909152016100a1565b61015d6101563660046105ca565b5050505050565b005b61015d61016d366004610625565b50565b60006001600160e01b031982166302c745c760e21b14806101a157506001600160e01b031982166301ffc9a760e01b145b92915050565b60606000836001600160a01b0316636a1f183c6002856040518363ffffffff1660e01b81526004016101da92919061063e565b600060405180830381865afa1580156101f7573d6000803e3d6000fd5b505050506040513d6000823e601f3d908101601f1916820160405261021f91908101906106a3565b9050806040516020016102329190610750565b60405160208183030381529060405291505092915050565b604080516001808252818301909252600091829190816020015b60408051808201909152606080825260208201528152602001906001900390816102645750506040805160008082526020820190925291925090816102cc565b6040805180820190915260608152600060208201528152602001906001900390816102a45790505b50604080516080810182526008818301908152670d2e0cce690c2e6d60c31b6060830152815281516020601f8901819004810282018101909352878152929350918183019188908890819084018382808284376000920182905250939094525050845185925061033e5761033e610784565b60200260200101819052506000876001600160a01b031663c5407b8a60405180606001604052808a6001600160a01b03168152602001600181526020016040518060c00160405280600015158152602001600015158152602001600015158152602001600015158152602001888152602001878152508152506040518263ffffffff1660e01b81526004016103d39190610873565b6020604051808303816000875af11580156103f2573d6000803e3d6000fd5b505050506040513d601f19601f82011682018060405250810190610416919061090e565b98975050505050505050565b60006020828403121561043457600080fd5b81356001600160e01b03198116811461044c57600080fd5b9392505050565b60005b8381101561046e578181015183820152602001610456565b8381111561047d576000848401525b50505050565b6000815180845261049b816020860160208601610453565b601f01601f19169290920160200192915050565b60208152600061044c6020830184610483565b6001600160a01b038116811461016d57600080fd5b600080604083850312156104ea57600080fd5b82356104f5816104c2565b946020939093013593505050565b6000806000806060858703121561051957600080fd5b8435610524816104c2565b93506020850135610534816104c2565b9250604085013567ffffffffffffffff8082111561055157600080fd5b818701915087601f83011261056557600080fd5b81358181111561057457600080fd5b88602082850101111561058657600080fd5b95989497505060200194505050565b6000806000606084860312156105aa57600080fd5b83356105b5816104c2565b95602085013595506040909401359392505050565b600080600080600060a086880312156105e257600080fd5b85356105ed816104c2565b945060208601356105fd816104c2565b9350604086013561060d816104c2565b94979396509394606081013594506080013592915050565b60006020828403121561063757600080fd5b5035919050565b60006004841061065e57634e487b7160e01b600052602160045260246000fd5b509182526020820152606060408201819052600890820152670d2e0cce690c2e6d60c31b608082015260a00190565b634e487b7160e01b600052604160045260246000fd5b6000602082840312156106b557600080fd5b815167ffffffffffffffff808211156106cd57600080fd5b818401915084601f8301126106e157600080fd5b8151818111156106f3576106f361068d565b604051601f8201601f19908116603f0116810190838211818310171561071b5761071b61068d565b8160405282815287602084870101111561073457600080fd5b610745836020830160208801610453565b979650505050505050565b6b697066733a2f2f697066732f60a01b81526000825161077781600c850160208701610453565b91909101600c0192915050565b634e487b7160e01b600052603260045260246000fd5b600081518084526020808501808196508360051b8101915082860160005b858110156108085782840389528151604081518187526107da82880182610483565b915050868201519150858103878701526107f48183610483565b9a87019a95505050908401906001016107b8565b5091979650505050505050565b600081518084526020808501808196508360051b8101915082860160005b8581101561080857828403895281516040815181875261085582880182610483565b92880151968801969096525098850198935090840190600101610833565b6020815260018060a01b03825116602082015260208201516040820152600060408301516060808401528051151560808401526020810151151560a08401526040810151151560c08401526060810151151560e0840152608081015160c06101008501526108e561014085018261079a565b905060a08201519150607f19848203016101208501526109058183610815565b95945050505050565b60006020828403121561092057600080fd5b505191905056fea26469706673582212203606bbe0feb0dc99b917f236b96235833542c178fc27a622e48710377cc6c64e64736f6c634300080c0033",
    "linkReferences": {},
    "deployedLinkReferences": {}
}